:020000040000FA
:100000000C9462000C948A000C948A000C948A0070
:100010000C948A000C948A000C948A000C948A0038
:100020000C948A000C948A000C948A000C948A0028
:100030000C948A000C94E0030C948A000C948A00BF
:100040000C9496030C948A000C948A000C948A00F9
:100050000C948A000C948A000C948A000C948A00F8
:100060000C948A000C948A000000000024002700F1
:100070002A0000000000250028002B0000000000DE
:1000800023002600290004040404040404040202DA
:100090000202020203030303030301020408102007
:1000A0004080010204081020010204081020000012
:1000B0000008000201000003040700000000000027
:1000C0000000700511241FBECFEFD8E0DEBFCDBF0A
:1000D00011E0A0E0B1E0E8EBFEE002C005900D9277
:1000E000A235B107D9F721E0A2E5B1E001C01D9228
:1000F000AD37B207E1F710E0C2E6D0E004C02197C7
:10010000FE010E945407C136D107C9F70E940704B7
:100110000C945A070C940000833081F028F481304D
:1001200099F08230A9F008958730A9F08830C9F09D
:100130008430B1F4809180008F7D03C08091800075
:100140008F7780938000089584B58F7784BD08955C
:1001500084B58F7DFBCF8091B0008F778093B00006
:1001600008958091B0008F7DF9CFCF93DF93282F32
:1001700030E0F901E255FF4F8491F901E656FF4F57
:10018000D491F901EA57FF4FC491CC23A1F081111A
:100190000E948C00EC2FF0E0EE0FFF1FE458FF4FA1
:1001A000A591B491EC91ED2381E090E009F480E019
:1001B000DF91CF91089580E090E0FACF1F93CF9325
:1001C000DF93282F30E0F901E255FF4F8491F901C8
:1001D000E656FF4FD491F901EA57FF4FC491CC2363
:1001E000A9F0162F81110E948C00EC2FF0E0EE0F89
:1001F000FF1FEE58FF4FA591B4918FB7F894EC9183
:10020000111108C0D095DE23DC938FBFDF91CF9111
:100210001F910895DE2BF8CFCF93DF9390E0FC0180
:10022000E656FF4F24918A579F4FFC018491882303
:10023000C9F090E0880F991FFC01E859FF4FA59184
:10024000B491FC01EE58FF4FC591D49161110DC0DE
:100250009FB7F8948C91209582238C9388812823D2
:1002600028839FBFDF91CF910895623051F49FB7EB
:10027000F8943C91822F809583238C93E8812E2BD8
:10028000EFCF8FB7F894EC912E2B2C938FBFEACF42
:100290003FB7F8948091610190916201A091630150
:1002A000B091640126B5A89B05C02F3F19F00196B7
:1002B000A11DB11D3FBFBA2FA92F982F8827BC01C0
:1002C000CD01620F711D811D911D42E0660F771FE8
:1002D000881F991F4A95D1F70895AF92BF92CF9288
:1002E000DF92EF92FF920F931F93CF93DF936C01F6
:1002F0007B018B01040F151FEB015E01AE18BF08D7
:10030000C017D10759F06991D601ED91FC91019088
:10031000F081E02DC6010995892B79F7C501DF91A0
:10032000CF911F910F91FF90EF90DF90CF90BF90F2
:10033000AF900895089590E080E0089508958F9219
:100340009F92AF92BF920F931F93CF93DF93CDB73E
:10035000DEB7A1970FB6F894DEBF0FBECDBF19A2CE
:10036000423008F44AE08E010F5D1F4F842E912C1D
:10037000B12CA12CA50194010E943207E62FB901EE
:10038000CA01EA3044F5E05DD801EE938D01232BDC
:10039000242B252B79F790E080E0109769F0FD0180
:1003A00001900020E9F73197AF014A1B5B0BBD01BB
:1003B00085E691E00E946D01A1960FB6F894DEBF2C
:1003C0000FBECDBFDF91CF911F910F91BF90AF9026
:1003D0009F908F900895E95CD7CFFC010190002099
:1003E000E9F73197AF01481B590BBC0185E691E055
:1003F0000C946D01CF93DF93EC0160E08E810E943D
:10040000DE0061E08E810E94DE0060E08E810E944D
:10041000DE008BE891E00197F1F7DF91CF9108952D
:10042000CF92DF92EF92FF920F931F93CF93DF93C0
:100430006C017C0187E0E80EF11CD0E0C0E0062FE3
:1004400010E0B8010C2E02C0759567950A94E2F78A
:100450006170F70181917F010E94DE002196C43016
:10046000D10579F7C601DF91CF911F910F91FF90D0
:10047000EF90DF90CF900C94FA01CF92DF92EF9241
:10048000FF920F931F93CF93DF93EC01F62E642F0F
:100490008C810E94DE008D818F3F19F060E00E9408
:1004A000DE000F2D10E08F8584FF25C06E0187E0F0
:1004B000C80ED11CF12CE12CB8010E2C02C0759590
:1004C00067950A94E2F76170F60181916F010E94CD
:1004D000DE00FFEFEF1AFF0A88E0E816F10461F78B
:1004E000CE01DF91CF911F910F91FF90EF90DF90A0
:1004F000CF900C94FA01B80184E0759567958A95C0
:10050000E1F7CE010E9410026F2DCE01DF91CF9155
:100510001F910F91FF90EF90DF90CF900C941002FD
:1005200040E0682F85E691E00C943D02CF93DF9385
:10053000613029F0909174019860909374016093F8
:1005400078011092790190E490937A0180937B0175
:10055000805C80937C0161E0809169010E940C01C4
:1005600080916A018F3F19F061E00E940C0161E007
:1005700080916B010E940C01C5E6D1E09E012556D9
:1005800031408091740184FD0BC084E090E021969D
:100590002817390744F461E08E810E940C01EECFE8
:1005A00088E090E0F4CF8BE39DE00197F1F760E005
:1005B000809169010E94DE0060E080916B010E94E1
:1005C000DE0080916A018F3F19F060E00E94DE003A
:1005D0008091740184FD39C063E085E691E00E945A
:1005E0001002CBE4D6E4CE010197F1F763E085E693
:1005F00091E00E9410022197F1F763E085E691E017
:100600000E94100283E592E00197F1F762E085E62F
:1006100091E00E9410028091740180620E94900219
:1006200084E0809375018CE00E94900281E00E943A
:1006300090028BE39FE10197F1F782E080937601CE
:1006400086E0DF91CF910C94900280620E9490022C
:100650008BE496E40197F1F78091740180620E9427
:10066000900283E592E00197F1F780917401806236
:100670000E949002D0CF90917801691710F06FEF2F
:10068000690FE62FF0E0EB59FE4F9489890F8068DF
:100690000C94900241E00E943D0281E090E00895B8
:1006A000CF92DF92EF92FF926B017C0141E06DE20D
:1006B00085E691E00E943D0266277727CB016C1901
:1006C0007D098E099F094AE00E949F010196FF90D3
:1006D000EF90DF90CF900895CF93DF9380915A01F0
:1006E00090915B010197F9F4C0915401D0915501AB
:1006F0002196D0935501C093540161E08EE00E9491
:100700003B03BE01DD0F880B990B97FF08C00E94C9
:1007100050038FE491E0DF91CF910C94ED014AE01A
:100720000E949F01F6CFDF91CF9108951F920F9203
:100730000FB60F9211242F933F938F939F93AF93F4
:10074000BF9380915D0190915E01A0915F01B09196
:10075000600130915C0123E0230F2D3758F501969D
:10076000A11DB11D20935C0180935D0190935E01FA
:10077000A0935F01B093600180916101909162014B
:10078000A0916301B09164010196A11DB11D8093F8
:10079000610190936201A0936301B0936401BF91E2
:1007A000AF919F918F913F912F910F900FBE0F901E
:1007B0001F90189526E8230F0296A11DB11DD2CFD8
:1007C0001F920F920FB60F9211242F933F934F93C6
:1007D0005F936F937F938F939F93AF93BF93EF93A9
:1007E000FF93E0910001F09101010995FF91EF91D4
:1007F000BF91AF919F918F917F916F915F914F9139
:100800003F912F910F900FBE0F901F9018957894E5
:1008100084B5826084BD84B5816084BD85B5826005
:1008200085BD85B5816085BD80916E0081608093B6
:100830006E0010928100809181008260809381001F
:10084000809181008160809381008091800081602F
:10085000809380008091B10084608093B10080918A
:10086000B00081608093B00080917A0084608093B2
:100870007A0080917A00826080937A0080917A0079
:10088000816080937A0080917A00806880937A00FA
:100890001092C10064E084E10E94960260E087E06B
:1008A0000E940C0162E082E00E940C0180E18093D2
:1008B00081001092800088EA91E6909387008093EF
:1008C000860084E1809381008CE693E0909301019F
:1008D0008093000181E080936F000E9490028BE37F
:1008E0009FE10197F1F760E080E00E943B038EE01A
:1008F00091E00E94ED0161E080E00E943B0380E214
:1009000091E00E94ED0163E080E00E943B038FE2F2
:1009100091E00E94ED0162E080E00E943B038EE3E3
:1009200091E00E94ED0190E4B92E26E0A22EC0E0F5
:10093000D0E001E010E0B0927C0080917A00806409
:1009400080937A0080917A0086FDFCCF60917800D8
:1009500070917900072E000C880B990B0E943906C4
:1009600020E030EC4FE754E40E948F0520E030E4B3
:100970004CE955E40E94C50620E030E040E251E435
:100980000E948F050E9401066B0163E08EE00E94C9
:100990003B03B601DD0C880B990B97FF99C00E94B1
:1009A00050038DE491E00E94ED010E9448012B016B
:1009B0003C0184E6C82ED12CE12CF12C0E94480188
:1009C0006419750986099709683E73408105910588
:1009D000A8F321E0C21AD108E108F10888EE480E18
:1009E00083E0581E611C711CC114D104E104F104A0
:1009F00029F782E00E94B500892B21F410935B0156
:100A000000935A0180915A0190915B01019709F07E
:100A100059C087E00E94B50081309105A1F4209172
:100A2000580130915901232B71F4209156013091D6
:100A300057012F5F3F4F30935701209356019093FA
:100A400059018093580187E00E94B500892B51F429
:100A50008091580190915901019721F41092590108
:100A60001092580180915401909155010A9751F5C7
:100A70008091560190915701A89E7001A99EF00C9B
:100A80001124F0925301E092520110925B011092F6
:100A90005A0162E08EE00E943B03B7010F2C000C6C
:100AA000880B990BF7FE18C00E9450038FE491E069
:100AB0000E94ED01109257011092560110925501BB
:100AC00010925401209709F436CF0E94000033CFD2
:100AD0004AE00E949F0165CF4AE00E949F01E6CF55
:100AE000E5E6F1E01382128286E091E09183808353
:100AF0008DE084838FEF85838CE086838BE0878312
:100B00008AE0808789E0818788E08287138614865F
:100B100015861686178661E080E10C9496020E9485
:100B2000A3050C948B060E94840658F00E947D0653
:100B300040F029F45F3F29F00C94740651110C9495
:100B4000BF060C947A060E949C0668F39923B1F3C1
:100B5000552391F3951B550BBB27AA2762177307E3
:100B6000840738F09F5F5F4F220F331F441FAA1F77
:100B7000A9F335D00E2E3AF0E0E832D09150504033
:100B8000E695001CCAF72BD0FE2F29D0660F771FE1
:100B9000881FBB1F261737074807AB07B0E809F0C7
:100BA000BB0B802DBF01FF2793585F4F3AF09E3F4C
:100BB000510578F00C9474060C94BF065F3FE4F383
:100BC000983ED4F3869577956795B795F7959F5F8F
:100BD000C9F7880F911D9695879597F90895E1E0DB
:100BE000660F771F881FBB1F621773078407BA073A
:100BF00020F0621B730B840BBA0BEE1F88F7E09595
:100C000008950E9408066894B1110C94BF060895D7
:100C10000E94A40688F09F5798F0B92F9927B751E2
:100C2000B0F0E1F0660F771F881F991F1AF0BA9590
:100C3000C9F714C0B13091F00E94BE06B1E008952A
:100C40000C94BE06672F782F8827B85F39F0B93F1C
:100C5000CCF3869577956795B395D9F73EF4909543
:100C60008095709561957F4F8F4F9F4F0895E894C1
:100C700009C097FB3EF490958095709561957F4FE4
:100C80008F4F9F4F9923A9F0F92F96E9BB27939592
:100C9000F695879577956795B795F111F8CFFAF4A2
:100CA000BB0F11F460FF1BC06F5F7F4F8F4F9F4FD3
:100CB00016C0882311F096E911C0772321F09EE831
:100CC000872F762F05C0662371F096E8862F70E097
:100CD00060E02AF09A95660F771F881FDAF7880F71
:100CE0009695879597F9089597F99F6780E870E042
:100CF00060E008959FEF80EC089500240A94161692
:100D0000170618060906089500240A9412161306F9
:100D1000140605060895092E0394000C11F4882387
:100D200052F0BB0F40F4BF2B11F460FF04C06F5FA3
:100D30007F4F8F4F9F4F089557FD9058440F551F79
:100D400059F05F3F71F04795880F97FB991F61F04D
:100D50009F3F79F087950895121613061406551FC4
:100D6000F2CF4695F1DF08C0161617061806991F30
:100D7000F1CF86957105610508940895E894BB2725
:100D800066277727CB0197F908950E94D8060C941F
:100D90008B060E947D0638F00E94840620F0952381
:100DA00011F00C9474060C947A0611240C94BF066E
:100DB0000E949C0670F3959FC1F3950F50E0551F5C
:100DC000629FF001729FBB27F00DB11D639FAA27A0
:100DD000F00DB11DAA1F649F6627B00DA11D661FEF
:100DE000829F2227B00DA11D621F739FB00DA11D10
:100DF000621F839FA00D611D221F749F3327A00DCA
:100E0000611D231F849F600D211D822F762F6A2F65
:100E100011249F5750409AF0F1F088234AF0EE0FCA
:100E2000FF1FBB1F661F771F881F91505040A9F7F7
:100E30009E3F510580F00C9474060C94BF065F3FF2
:100E4000E4F3983ED4F3869577956795B795F79533
:100E5000E7959F5FC1F7FE2B880F911D96958795AB
:100E600097F90895A1E21A2EAA1BBB1BFD010DC024
:100E7000AA1FBB1FEE1FFF1FA217B307E407F5074A
:100E800020F0A21BB30BE40BF50B661F771F881F26
:100E9000991F1A9469F760957095809590959B01BC
:100EA000AC01BD01CF010895EE0FFF1F0590F49135
:100EB000E02D0994F894FFCF9E01000000004A0342
:100EC0006D019B019A014845414C5448204D4F4EBD
:100ED00049544F52494E470054494D4520494E20F0
:100EE000534543203A2000424F44592054454D5029
:100EF0002020203A2000484220504552204D494EA3
:0A0F000020203A20002020200000ED
:107E0000112484B714BE81FFF0D085E080938100F7
:107E100082E08093C00088E18093C10086E0809377
:107E2000C20080E18093C4008EE0C9D0259A86E02C
:107E300020E33CEF91E0309385002093840096BBD3
:107E4000B09BFECF1D9AA8958150A9F7CC24DD24C4
:107E500088248394B5E0AB2EA1E19A2EF3E0BF2EE7
:107E6000A2D0813461F49FD0082FAFD0023811F036
:107E7000013811F484E001C083E08DD089C08234E0
:107E800011F484E103C0853419F485E0A6D080C0E4
:107E9000853579F488D0E82EFF2485D0082F10E0AE
:107EA000102F00270E291F29000F111F8ED06801E7
:107EB0006FC0863521F484E090D080E0DECF843638
:107EC00009F040C070D06FD0082F6DD080E0C81688
:107ED00080E7D80618F4F601B7BEE895C0E0D1E017
:107EE00062D089930C17E1F7F0E0CF16F0E7DF06D8
:107EF00018F0F601B7BEE89568D007B600FCFDCFD4
:107F0000A601A0E0B1E02C9130E011968C91119780
:107F100090E0982F8827822B932B1296FA010C0160
:107F200087BEE89511244E5F5F4FF1E0A038BF0790
:107F300051F7F601A7BEE89507B600FCFDCF97BE46
:107F4000E89526C08437B1F42ED02DD0F82E2BD052
:107F50003CD0F601EF2C8F010F5F1F4F84911BD097
:107F6000EA94F801C1F70894C11CD11CFA94CF0C13
:107F7000D11C0EC0853739F428D08EE10CD085E9AC
:107F80000AD08FE07ACF813511F488E018D01DD067
:107F900080E101D065CF982F8091C00085FFFCCF94
:107FA0009093C60008958091C00087FFFCCF809118
:107FB000C00084FD01C0A8958091C6000895E0E648
:107FC000F0E098E1908380830895EDDF803219F02E
:107FD00088E0F5DFFFCF84E1DECF1F93182FE3DFCA
:107FE0001150E9F7F2DF1F91089580E0E8DFEE27F6
:047FF000FF270994CA
:027FFE00040479
:00000001FF
